:020000040800F2
:1000000028410020F1010008D33100081F2D00080D
:10001000D131000897050008513C0008000000009D
:10002000000000000000000000000000D7310008C0
:10003000B306000800000000D5310008D9310008DF
:100040000B0200080B0200080B0200080B0200085C
:100050000B0200080B0200080B0200080B0200084C
:100060000B0200080B0200080B020008050600083E
:100070000B0200080B0200080B0200080B0200082C
:100080000B0200080B0200080B0200080B0200081C
:100090000B0200080B0200080B0200080B0200080C
:1000A0000B0200080B0200080B0200080B020008FC
:1000B0000B0200080B0200080B0200080B020008EC
:1000C0000B0200080B0200080B0200080B020008DC
:1000D0000B0200080B0200080B0200080B020008CC
:1000E000B50600080B0200080B0200080B0200080E
:1000F0000B0200080B020008613200080B02000826
:100100000B0200080B0200080B0200080B0200089B
:100110000B0200080B0200080B0200080B0200088B
:100120000B0200080B0200080B0200080B0200087B
:100130000B0200080B0200080B0200080B0200086B
:100140000B0200080B0200080B0200080B0200085B
:100150000B0200080B0200080B0200080B0200084B
:100160000B0200080B0200080B0200080B0200083B
:100170000B0200080B0200080B0200080B0200082B
:10018000553200080B0200080B0200080B020008A1
:100190000B020008000000000B0200080B02000820
:1001A0000B0200080B0200080B0200080B020008FB
:1001B0000B0200080B0200080B0200080B020008EB
:1001C0000B0200080B0200080B0200080B020008DB
:1001D0000B0200080B020008DFF810D000F07CF8DA
:1001E00000480047913C0008AFF300802841002000
:1001F0000648804706480047FEE7FEE7FEE7FEE7C1
:10020000FEE7FEE7FEE7FEE7FEE7FEE74532000811
:10021000D90100082DE9F05F0546002092469B4673
:1002200088460646814640241BE02846414647460C
:10023000224600F041F853465A46C01A914110D365
:1002400011461846224600F028F82D1A67EB0108DF
:100250004F4622460120002100F01FF817EB00094D
:100260004E41201EA4F10104DFDC484631462A46F7
:100270004346BDE8F09FD2B201E000F8012B491ED1
:10028000FBD270470022F6E710B513460A46044633
:100290001946FFF7F0FF204610BD202A04DB203A64
:1002A00000FA02F1002070479140C2F1200320FAC9
:1002B00003F3194390407047202A04DB203A21FAC7
:1002C00002F00021704721FA02F3D040C2F120026F
:1002D0009140084319467047064C074D06E0E06818
:1002E00040F0010394E8070098471034AC42F6D37D
:1002F000FFF776FF803E0008A03E000810B5846A34
:10030000E16D11F0500F06D0E16DC90625D52046EC
:1003100000F0E1FC10BDE06D40F40070E065206885
:100320000168090716D502F00DFD78B12068C06894
:10033000800400280ADBE06D20F48070E065E06D49
:10034000C00403D4E06D40F00100E065204600F0F9
:100350009DFC10BDC0688007EBE7616D496BBDE88F
:100360001040084710B5806AC16D41F04001C16579
:10037000016E41F00401016600F0ADFC10BD10B546
:10038000806A00F0A7FC10BDF8B50446002000907C
:100390002068816811F0010F4AD18168254A114215
:1003A00037D18168D5432940491C81602068B0F16C
:1003B000A04F02D02049884201D1204800E02048C7
:1003C000806800F0E07000020DD51E481E490068EC
:1003D000B0FBF1F0401C00EB4000800000E0401E4C
:1003E00000900028FBD101F0CDF806461BE08168A3
:1003F00011F0010F03D181682940491C816001F08F
:10040000C1F8801B02280ED920680068C043C007CD
:1004100009D0E06D40F01000E065206E40F0010072
:1004200020660120F8BD20680168C943C907DED1F4
:100430000020F8BD3F000080000100500003005084
:100440000007005038000020400D030070B5002563
:100450000E46012801D9AD1E11E000EB800101EB31
:100460004011084800EB8100044600F095F8204652
:10047000314602F055FD10B16FF0030070BD284603
:1004800070BD0000943C002070B50446114886B051
:10049000C16C41F00101C164C06C0F4E00F001005D
:1004A000059036F814000090012001900020029081
:1004B0000A4D0320039055F82400694600F038FFE8
:1004C00036F8141055F82400002201F055F806B053
:1004D000002070BD00100240463E000810000020C1
:1004E00070470000024901EBC00000F003BF0000AC
:1004F0002400002030B50446214887B0C26C42F089
:100500000402C264C06C00F0040005901D4830F87D
:10051000140000900220029003901B4850F8240021
:1005200041B34FF488110191694600F001FF15486D
:10053000001D50F824101448103000EBC40005468C
:1005400000F0D2FE10480021083050F82420284640
:1005500000F0E6FE0C480B4D0C302D1F50F8241017
:100560002857002201F074F8285701F063F807B00B
:10057000002030BD00210191694600F0D9FEF6E768
:1005800000100240483E00081400002010B5002072
:10059000FFF7A6FF10BDFEE770B5194886B0C16C25
:1005A00041F00101C164C16C01F001010591C16C10
:1005B00041F00101C164C16C01F001010591C16DFF
:1005C00041F00101C165C06D022400F001000590F9
:1005D0000420CDE9000402AA01200C2582E83100A4
:1005E0004FF090466946304600F0A2FE0820CDE963
:1005F000000469460495304600F09AFE06B070BDCE
:1006000000100240014800F06BBD0000503B00208C
:100610000D4902688A4201D20C4901E00B492031A0
:10062000D2B21423083AB2FBF3F2436C02F01F0279
:1006300023F003031944816404498031C16401211A
:100640009140016570470000080402400008024024
:100650000179074A02EB81024265054A4432491E8C
:10066000826501F01F0201219140C16570470000C1
:10067000FC08024030B5D0E913456560446D14B103
:10068000D0E91645656090F8444004F01F05012448
:10069000AC40056C6C60046863608368102B036871
:1006A00003D099600068C26030BD9A600068C16084
:1006B00030BD70470020FFF715BF72B6FEE700009F
:1006C0002DE9F04F044690F858009BB00F464FF0CC
:1006D000000B012812D0012084F85800002617963C
:1006E000189620684FF0A048DFF81C91DFF81CA195
:1006F000474D404506D12846009508E002201BB032
:10070000BDE8F08F48450AD15046CDF800A002F070
:1007100015FB0090206802F011FB40B109E0E06D8C
:1007200040F02000E06584F858600120E7E7009879
:1007300050B1E06D40F02000E0654FF0010B00BFCC
:1007400084F858605846DAE720684146884201D06C
:10075000A84201D12F4800E02F48D7F800C02F4B06
:1007600040F61F72BCF1000F2DD0D0F808C094F8ED
:1007700038802CF4604C4CEA483CD7F804804CEAB2
:10078000080CC0F808C0D4F800C08C4501D0AC45B6
:1007900004D18968AB6801F0010109E0D9F80810BB
:1007A000DAF8085001F0010105F001059B682943C2
:1007B00003F001031943C3D1BB6839681943836847
:1007C000934319431DE0876827F4604787602768D3
:1007D0008F4201D0AF4204D18968AB6801F00101BA
:1007E00009E0D9F80810DAF8085001F0010105F025
:1007F00001059B68294303F001031943A0D18168D7
:10080000914381609CE70000000400500005005007
:100810000001005000030050000700500006005087
:100820002DE9F84F00270446009790F85800DFF8AC
:100830001C840D46B946012811D0012684F8586061
:10084000206802F077FA60B1E06D40F02000E065CA
:100850005FF0010784F858903846BDE8F88F022011
:10086000FBE7D5E900210C23206803EA9113184423
:10087000036B01F01F014FF01F0C0CFA01FCC2F3D7
:10088000846223EA0C038A4013430363206802F066
:1008900051FA8246206802F049FA5AEA00003CD137
:1008A000AA6829682068B2F1004F37D002F052FAE6
:1008B0002068416921F00041416120686969C2688E
:1008C000C2F3C102520091402A69042A31D000EBE0
:1008D00082002B68026EDFF878C303F0F84302EA67
:1008E0000C020B431A4342F000410166226828695A
:1008F000A96902EB8000026E22F080720A43026650
:10090000297F22682869012910D0002102EB80008C
:10091000026E22F000720A4302667DE0002202F0BD
:1009200019FA2068416941F00041C5E74FF00071B4
:10093000ECE7002102F0F4F9400320684FF00001D9
:1009400072D002F0EDF990FAA0F0B0FA80F12868C8
:1009500042036ED090FAA0F0B0FA80F0814204D148
:1009600000221146206802F004FA0121206802F0FA
:10097000D7F9400320684FF001015DD002F0D0F9B3
:1009800090FAA0F0B0FA80F12868420359D090FAAA
:10099000A0F0B0FA80F0814204D100220121206849
:1009A00002F0E7F90221206802F0BAF9400320685A
:1009B0004FF0020148D002F0B3F990FAA0F0B0FA7B
:1009C00080F12868420344D090FAA0F0B0FA80F099
:1009D000814204D100220221206802F0CAF90321D9
:1009E000206802F09DF9400320684FF0030133D0E6
:1009F00002F096F990FAA0F0B0FA80F1286842036C
:100A00002FD090FAA0F0B0FA80F0814204D10022F9
:100A10000321206802F0ADF92068816811F0010F10
:100A200022D0ACE000E004E002F07AF9C0F3846187
:100A30008DE7C0F3846091E702F072F9C0F384613E
:100A4000A2E7C0F38460A6E702F06AF9C0F384610C
:100A5000B7E7C0F38460BBE702F062F9C0F38461DA
:100A6000CCE7C0F38460D0E72A7B296850F8B03F18
:100A7000C1F3120C23EA0C0302F0180C754A22FA97
:100A80000CF20A4013430360E968414577D12868B6
:100A900041031CD090FAA0F1B1FA81F1491C01F098
:100AA0001F0109294FEA403132D8002912D000BF76
:100AB00090FAA0F1B1FA81F101F1010101F01F01F9
:100AC00006FA01F609D100BFC0F3846109E0C0F362
:100AD0008461E3E7C0F38461EEE790FAA0F1B1FA34
:100AE00081F101F1010101F01F0146EA816102D1AA
:100AF000C0F3846003E090FAA0F0B0FA80F000F157
:100B0000010000F01F0000EB400041EA005132E01C
:100B100000290ED090FAA0F1B1FA81F101F10101A2
:100B200001F01F0106FA01F606D100BFC0F384618F
:100B300006E0C0F38461F1E790FAA0F1B1FA81F127
:100B400001F1010101F01F0146EA816102D1C0F308
:100B5000846003E090FAA0F0B0FA80F000F10100A8
:100B600000F01F003C4A00EB400002EB005041EA5D
:100B7000000141F00071AA68206802F0EBF83748E4
:100B80002B6803423FF466AE21684FF0A04C344816
:100B9000344E354D614501D0A94201D1024600E0F5
:100BA00032469268DFF8C48002F0E072434503D019
:100BB000DFF8BC80434521D15FEA02281ED461459D
:100BC00006D02C4B99427FF445AEA94200D0304666
:100BD00042F40001826822F0E0720A4382602648F3
:100BE00026490068B0FBF1F0401C00EB400080009B
:100BF00000E0401E00900028FBD12BE6DFF880804B
:100C000043450FD15FEAC2180CD4A94202D11D4B53
:100C10009942F2D0614502D0A94200D0304642F05C
:100C200080710CE0DFF860804345E6D15302E4D4E4
:100C3000A942E2D0614500D0304642F4800182688A
:100C400022F0E0720A43826004E6000000007F4068
:100C500000F0FF03FFFF0700000020FE00000880F7
:100C6000000300500007005000010050000021C3A5
:100C70001000C0900006005038000020400D030016
:100C8000000052C700050050000084CB70B50D4C29
:100C9000207870B10C480125A0606570207840F282
:100CA000DC5240B109490A4800F084F90020207064
:100CB00070BD0648EFE70449054800F07BF9257050
:100CC00070BD00000000002064230020AC1700204D
:100CD000E43A002070477047F8B54FF00005040073
:100CE0002E46009502D0E06D10B107E00120F8BD5E
:100CF000204600F009F9266684F85860206881686B
:100D0000C1F3407119B18168734A11408160206854
:100D10008168C1F3007189B98168704A114041F05E
:100D2000805181606E486F490068B0FBF1F040006F
:100D3000801C00E0401E00900028FBD120688168E4
:100D4000C1F3007141B9E16D41F01001E165216E1F
:100D500041F001012166012501F0ECFFE16DC906BA
:100D600000D430B1E06D40F01000E0650125284668
:100D7000F8BDE06D20F4807040F00200E06520686E
:100D8000816811F0010F27D14FF0A043564A9842D5
:100D900001D0904204D19968966801F001010AE0FF
:100DA00052498968524E01F00101B66806F0010609
:100DB0003143504EB66806F0010631430CD19842DB
:100DC00001D0904201D14C4800E04C4861688268F3
:100DD00022F47C120A438260E168E06B627F084380
:100DE000A16841EA4231084394F8241040EA0140E6
:100DF000012904D1218D424A02EB41410843E16AB5
:100E000029B101F47871226B014342EA01002268A2
:100E1000D1683C4B19400143D16020680169626B85
:100E200021F0406111430161206801F07FFF70BB38
:100E3000207F94F838102268800340EA4100D1688E
:100E400044F2020399430143D160206900282068DD
:100E500001690AD041F480310161206850F8C01F57
:100E600022696FF30D01114307E021F48031016124
:100E7000206850F8C01F6FF30D01016094F8400026
:100E800001280CD02068016921F00101016160692D
:100E900001282068016B21F00F0111D013E0D4E983
:100EA00011010843D4E913121143084321680A6968
:100EB00040F2FC739A43104340F001000861E6E7FA
:100EC000226A521E11430163E06D20F0020040F0DF
:100ED0000100E0654BE70000C0FFFF5FC0FFFF7F40
:100EE00038000020400D03000001005000040050B5
:100EF000000500500006005000030050000700509D
:100F00000000FEFF0740F0FF70B59CB005461421BD
:100F100015A8FFF7B7F954216846FFF7B3F9286819
:100F2000B0F1A04F3ED14FF40040009080031190EB
:100F3000684600F025FC08B1FFF7BFFB1A49C86CF2
:100F400040F40050C864C86C00F400501A90C86C9B
:100F500040F00100C864C86C002600F001001A903F
:100F6000012015900320CDE9160615A94FF09040F9
:100F700000F0DEF90E4C0D4820600520C4E90106A2
:100F80008020C4E90360400060618000A0612020EF
:100F9000C4E90706204600F001F908B1FFF78DFB10
:100FA0006C65A5621CB070BD0010024008000240D4
:100FB000503B00202DE9F047044600684FF0A04860
:100FC0003D4F91468A46404501D0B84201D13B4948
:100FD00000E03B49896801F01F0501F0ABFE0028E5
:100FE00068D194F85800012864D0012084F8580092
:100FF00034492068884201D1012000E00020401ED1
:1010000028424FF0000605D0052D03D0092D01D050
:10101000012003E02046FFF7B7F918B184F85860C3
:10102000BDE8F087E06D40F60161884340F48070D0
:10103000E0652068B84201D1414605E02249884276
:1010400001D1224900E00146814200D01DB9E06D86
:1010500020F48010E065E06DC00404D5206E20F01F
:101060000600206600E02666616D1948C862616D61
:1010700018480863616D1848486321681C2008609F
:1010800084F858602068416841F010014160206890
:10109000C16841F00101C16021684B4652464031B0
:1010A000606D00F0DBF821688A680C4B1A40121D55
:1010B0008A60B5E70220B3E700010050000300504A
:1010C00000070050000600500005005000040050CA
:1010D000FD0200087F03000865030008C0FFFF7FD2
:1010E000F0B4016C0C6801680D6890F8442002F0BF
:1010F0001F06042202FA06F3234211D06B070FD514
:101100000B689B0603D40B6823F004030B6090F874
:10111000441001F01F018A40016C4A60016B1DE020
:10112000022303FA06F727424FF0000C4FF00102AA
:1011300018D0AF0716D50C68A40605D40C6824F0A7
:101140000A040C6080F8252090F8441001F01F017B
:101150008B40016C4B6080F824C0C16A00291AD012
:10116000F0BC08470823B340234214D02B0712D504
:101170000B6823F00E030B6090F84410036C01F031
:101180001F0102FA01F15960C26380F8252080F83E
:1011900024C0416BE2E7F0BC7047000070B504006A
:1011A0000CD02B4A21681420914209D2294A0A44C2
:1011B000B2FBF0F08000606427480AE0012070BDB7
:1011C000234A52420A44B2FBF0F080006064204897
:1011D00008382064022084F825000A6847F6F07079
:1011E0008243D4E902031843D4E904352B4318435E
:1011F000A3691843E3691843236A1843104308603E
:101200002046FFF705FAA0680025B0F5804F00D111
:101210006560A16C20790860D4E9130141606068C1
:10122000401E032808D82046FFF712FA606D0560BB
:10123000D4E91601416002E06565A565E565E563F1
:10124000012084F8250084F82450002070BD00009F
:1012500008040240F8FFFDBF0000024070B50446DC
:1012600090F82400002501280CD0012084F82400E7
:1012700094F825600020012E06D084F82400022571
:10128000284670BD022070BD022684F82560E06308
:101290002068066826F0010606602046FFF7EAF996
:1012A000206B00282068016802D041F00E0106E0A2
:1012B00021F0040101602068016841F00A01016029
:1012C000A06C0168C90303D5016841F48071016015
:1012D000606D18B1016841F4807101602068016897
:1012E00041F001010160CBE710B1016000207047BF
:1012F0000120704702680123C2F3004102F01F027F
:101300009340064A02EB41110A681A4204D00B606E
:101310004068002800D000477047000014040140D6
:101320000346002011B15860012070475A60704791
:101330002DE9F04FDFF82092002301260324A9F1C4
:10134000040B85B00F2709F1040AABF1040EFAE093
:1013500006FA03F52A407CD091F804C00CF0030C87
:10136000BCF1010F02D0BCF1020F26D1D0F808C0A9
:10137000CDF800C04FEA430C04FA0CF8CDF810C0C9
:10138000DDF800C02CEA080CCDF800C0D1F80C80C4
:10139000DDF810C008FA0CF8DDF800C048EA0C08C7
:1013A000C0F80880D0F804C02CEA050C0D79C5F30C
:1013B00000159D4045EA0C0545600D79ED43AD07EC
:1013C0000ED0C5684FEA430804FA08FC25EA0C056C
:1013D000D1F808C00CFA08FC4CEA050CC0F80CC0A7
:1013E0000D7905F00305022D16D1DD0800EB850C03
:1013F000CDF808C0DCF820805D074FEAD56C07FA0D
:101400000CF528EA05080D6905FA0CF5DDF808C0A9
:1014100045EA0805CCF8205005684FEA430CCDF8A2
:1014200008C004FA0CFC25EA0C0591F804C00CF085
:101430000308DDF808C008FA0CF848EA0508C0F807
:1014400000804D6815F4403F7CD0444DD5F860C015
:1014500000E077E04CF0010CC5F860C02D6E23F081
:10146000030C05F0010500953D4D65440295AD68FE
:101470004FEA837C4FEA1C7807FA08FC25EA0C0542
:10148000B0F1904F06D0DFF8DCC0604505D14FF0D9
:10149000010C20E04FF0000C1DE0DFF8CCC06045EF
:1014A00002D14FF0020C16E0DFF8C0C0604502D157
:1014B0004FF0030C0FE0DFF8B8C0604502D14FF0E9
:1014C000040C08E0DFF8ACC0604502D14FF0050C19
:1014D00001E04FF0060C0CFA08FC4CEA050C029DEA
:1014E000C5F808C0D9F80050CC46D1F8048095431F
:1014F0005FEAC82800D51543CCF80050DAF8005050
:10150000D446D1F8048095435FEA882800D5154376
:10151000CCF80050DBF80050DC46D1F8048095434D
:101520005FEA883800D51543CCF80050DEF800504B
:10153000F446D1F8048095435FEAC83800D51543D6
:10154000CCF800505B1C0A6832FA03F57FF400AF58
:1015500005B0BDE8F08F0000080401400010024013
:10156000000001400004004800080048000C00484A
:1015700000100048001400480AB181617047816280
:101580007047000001488068704700002C00002070
:101590000248816842681144816070472C00002035
:1015A00010B50024032000F073F8002000F008F8C4
:1015B00008B1012401E000F025F8204610BD00002C
:1015C00070B50E4E05460024706898B14FF47A71DC
:1015D000B1FBF0F00A490968B1FBF0F000F09CFDA6
:1015E00040B9102D06D200222946501E00F030F8D6
:1015F000356000E00124204670BD00002C00002072
:10160000380000200A4882B0016E41F001010166F5
:10161000016E01F001010091816D41F08051816501
:10162000806D00F08050009002B000F0A1B8000082
:1016300000100240002809DB00F01F020121914048
:101640004009800000F1E020C0F800117047000060
:10165000F0B40E4B1B680C46C3F30223C3F107051D
:10166000042D00D90425191D072901D2002300E00B
:10167000DB1E012606FA05F1491E214099409E40D5
:10168000761E16403143F0BC02F0E3BA0CED00E0E8
:10169000064900F0070208684FF6FF03184040EAC9
:1016A0000220034A10430860704700000CED00E080
:1016B0000000FA052B492C4B0A6832214A432B497A
:1016C00040B1B0F5007F086829D020F4C06040F434
:1016D00080602CE00868C0F34120022804D051F853
:1016E000800F20F4807022E0D1F8800020F4807018
:1016F000C1F88000086820F4C06040F40070086001
:10170000B2FBF3F0401C00E0401E4A69520501D5CF
:101710000028F9D1486940050AD503207047C0F375
:101720004120022806D051F8800F40F480700860F4
:1017300000207047D1F8800040F48070C1F880002C
:10174000086820F4C06040F400700860B2FBF3F059
:10175000401C00E0401E4A695205DBD50028F9D143
:10176000D8E700003800002040420F000070004021
:101770000248816841F480418160704700700040F8
:101780002DE9F843044600680026BB4D00035ED5F2
:10179000A86D0027C00008D4A86D40F08050A8654F
:1017A000A86D012700F080500090DFF8D092D9F8A2
:1017B000001041F48071C9F80010FFF7E3FE804685
:1017C00006E000BFFFF7DEFEA0EB080002282BD8E2
:1017D000D9F80000C005F5D5D5F8900010F4407098
:1017E00014D0216D814211D0D5F89000D5F8901019
:1017F00020F4407041F48031C5F89010D5F8901075
:1018000021F48031C5F89010C5F89000C00711D0C0
:10181000FFF7B8FE804641F2883907E0FFF7B2FED5
:10182000A0EB0801494501D903260BE0D5F890004B
:101830008007F3D5D5F89000216D20F4407008435F
:10184000C5F890001FB1A86D20F08050A8652078E1
:10185000C00707D0D5F88800616820F0030008436E
:10186000C5F888002078800707D5D5F88800A168DA
:1018700020F00C000843C5F888002078400707D501
:10188000D5F88800E16820F030000843C5F88800EA
:101890002078000707D5D5F88800216920F0C0001E
:1018A0000843C5F888002078C00607D5D5F8880019
:1018B000616920F440700843C5F8880020788006EC
:1018C00007D5D5F88800A16920F440600843C5F821
:1018D00088002078400607D5D5F88800E16920F413
:1018E00040500843C5F888002078000607D5D5F891
:1018F0008800216A20F440400843C5F88800208809
:10190000C00507D5D5F88800616A20F44030084347
:10191000C5F888002068800307D5D5F89C00A16A27
:1019200020F003000843C5F89C002088800507D5F7
:10193000D5F88800E16A20F440200843C5F8880003
:10194000208840050FD5D5F88800216B20F4401081
:101950000843C5F88800206BB0F5801F03D1E86804
:1019600040F48010E860208800050FD5D5F8880085
:10197000616B20F440000843C5F88800606BB0F547
:10198000800F03D1E86840F48010E8602088C0042C
:101990000FD5D5F88800A16B20F040700843C5F83A
:1019A0008800A06BB0F1807F03D1E86840F480101C
:1019B000E86020884FF0006180040ED5D5F88800DB
:1019C000E26B20F040601043C5F88800E06B88426D
:1019D00003D1E86840F48010E860208840040ED508
:1019E000D5F88800226C20F040601043C5F88800CC
:1019F000206C884203D1E86840F48010E8602088B9
:101A000000040FD5D5F88800616C20F040500843E1
:101A1000C5F88800606CB0F1805F03D1E86840F4DD
:101A20008030E8602068C0030FD5D5F88800A16C2D
:101A300020F040400843C5F88800A06CB0F1804F0A
:101A400003D1E86840F48030E860206840030FD597
:101A5000D5F89C00E16C20F440100843C5F89C00C8
:101A6000E06CB0F5001F03D1E86840F48010E86036
:101A70003046BDE8F88300000010024000700040CE
:101A80002DE9F0470E4605004FF0000725D0DFF89E
:101A9000AC81D8F8000000F00F00B0420CD2D8F8AA
:101AA000001021F00F013143C8F80010D8F80000F1
:101AB00000F00F00B04210D12968614CC80741F214
:101AC000883A5AD06868DFF87C91032808D0022849
:101AD00020682DD0400500282CDB0120BDE8F087D0
:101AE00020688001F9D5E06800F00302E068C0F3E7
:101AF0000310401C032A19D0534A00BFB2FBF0F078
:101B0000E268C2F306225043E268C2F34162521C0B
:101B10005200B0FBF2F0484517D9A06810F0F00F62
:101B20000CD0880711D5A86840B10EE0474AE5E718
:101B30008003D0E700F0B6F8484506D9A06820F049
:101B4000F00040F08000A0608027A068696820F065
:101B500003000843A060FFF715FD814606E000BFC3
:101B6000FFF710FDA0EB090151453AD8A06869685C
:101B700000F00C00B0EB810FF2D12868810714D57A
:101B8000400703D5A06840F4E060A0602878000713
:101B900005D5A06820F4605040F4E060A060A06823
:101BA000A96820F0F000084304E0802F03D1A0686A
:101BB00020F0F000A060D8F80010404601F00F01BE
:101BC000B14216D9016821F00F0131430160FFF7DE
:101BD000D9FC074607E000BFFFF7D4FCC11B514505
:101BE00001D903207AE7D8F8000000F00F00B042D6
:101BF000F2D12878400705D5A068E96820F4E060B4
:101C00000843A0602878000706D5A068296920F459
:101C1000605040EAC100A06000F044F8A1680C4A9E
:101C2000C1F30311515C01F01F01C840094908606C
:101C300009480068BDE8F047FFF7C2BC0020024039
:101C40000010024000B4C4040024F40000366E0109
:101C5000683E0008380000202C0000200548064996
:101C600000688968054AC1F30221515C01F01F0137
:101C7000C84070473800002000100240783E00083D
:101C80000548064900688968054AC1F3C221515CCC
:101C900001F01F01C84070473800002000100240CA
:101CA000783E0008184910B58868C0F381021748CB
:101CB000012A0BD08A68164BC2F38102022A06D091
:101CC0008A68C2F38102032A03D0002010BD18469F
:101CD00010BDCA6802F00304CA68C2F30312521CA2
:101CE000032C02D0B0FBF2F001E0B3FBF2F0CA68C3
:101CF000C968C2F306225043C1F34161491C49003F
:101D0000B0FBF1F010BD0000001002400024F40010
:101D100000366E012DE9F84304007AD02078F84DA2
:101D2000C00747D0A868E96800F00C0001F0030183
:101D30000C2802D0082817D001E0032914D06068CD
:101D4000B0F5803F17D0B0F5A02F286817D020F449
:101D500080302860286820F4802028606068E0B126
:101D6000FFF710FC064614E02868800322D560685F
:101D70000028D2D01EE0286840F48030EDE740F41F
:101D800080202860F7E700BFFFF7FCFB801B64287A
:101D900070D828688003F7D50CE0FFF7F3FB064600
:101DA00005E000BFFFF7EEFB801B6428F0D8286831
:101DB0008003F7D4207880074CD5A868E96800F044
:101DC0000C0001F003010C2802D004280DD001E022
:101DD00002290AD0E068002828682BD040F48070DF
:101DE0002860FFF7CFFB064619E02868400502D5BA
:101DF000E068002891D06868217C20F0FE4040EA2D
:101E000001606860BF480068FFF7DAFB002800D176
:101E100020E072E1FFF7B6FB801B0228B8D82868E3
:101E20004005F7D56868217C20F0FE4040EA01605B
:101E300068600FE020F480702860FFF7A3FB06467F
:101E400005E000BFFFF79EFB801B0228A0D8286892
:101E50004005F7D42078000729D560690028D5F817
:101E6000940013D040F00100C5F89400FFF78AFBFE
:101E7000064606E090E000BFFFF784FB801B0228C7
:101E800086D8D5F894008007F6D510E020F0010040
:101E9000C5F89400FFF776FB064604E0FFF772FBF7
:101EA000801B022878D8D5F894008007F6D42078D3
:101EB000400761D5A86D0026C00008D4A86D40F089
:101EC0008050A865A86D012600F0805000908E48D3
:101ED0000168C90511D40168804641F48071016030
:101EE000FFF750FB074604E0FFF74CFBC01B02283E
:101EF00052D8D8F80000C005F6D5A068012815D042
:101F00000528D5F8900016D020F00100C5F8900003
:101F1000D5F8900020F00400C5F89000A06841F2C8
:101F20008838B8B1FFF72EFB07460EE0D5F89000D1
:101F300040F00100F0E740F00400C5F89000F5E73C
:101F4000FFF720FBC11B414526D8D5F8900080073C
:101F5000F6D50CE0FFF716FB074604E0FFF712FB8F
:101F6000C11B414518D8D5F890008007F6D41EB1A2
:101F7000A86D20F08050A8652078800629D5A0693A
:101F80000028D5F8980013D040F00100C5F898005B
:101F9000FFF7F8FA064606E075E000BFFFF7F2FA31
:101FA000801B02286FD8D5F898008007F6D510E07E
:101FB00020F00100C5F89800FFF7E4FA064604E0B7
:101FC000FFF7E0FA801B02285DD8D5F8980080075B
:101FD000F6D4E069F0B3A968C1F3810103295DD0AB
:101FE0000228286820F08070286003D0FFF7CAFA22
:101FF00004464BE0FFF7C6FA064604E0FFF7C2FAD4
:10200000801B02283FD828688001F7D4F4E9080132
:102010006FF00F0202EB01110843218A52044908B4
:1020200002EB4151A26841EA02210843217D4FF0B1
:102030007E42490802EB41610843217B40EAC160CE
:10204000E968324A11400843E860286840F080702F
:10205000286000E05EE0E86840F08070E860FFF72C
:1020600091FA044605E000BFFFF78CFA001B022836
:1020700009D828688001F7D54CE000BFFFF782FA45
:10208000001B022802D90320BDE8F88328688001DC
:10209000F4D4E8681E490840E8603BE00128F3D02A
:1020A000E868226A00F00301914226D1616A00F0DB
:1020B000F0020901103991421FD1A26A00F4FE41D9
:1020C000B1EB022F19D194F82C2000F07841B1EB3C
:1020D000C26F12D1218E00F4C00249084905A1F552
:1020E0000011914209D194F8341000F0C060490801
:1020F0004906A1F1007181420CD00120C4E7000023
:10210000001002402C000020007000400C809F0155
:10211000FCFFEEFE0020B7E710B5401EB0F1807F57
:1021200001D3012010BD4FF0E02460610F21601742
:1021300001F08FFD0020A06107202061002010BD6C
:10214000704770477047000030B590F83C20012A76
:1021500045D0012280F83C20CA688B6822F4407286
:102160001A434B6822F480621A430B6822F400621F
:102170001A430B6922F480521A434B6922F400522D
:102180001A430B6B22F480421A430B8B22F4702209
:1021900042EA0342CB6922F080521A43114D036890
:1021A0000024AB4205D0104DAB4202D00F4DAB42E4
:1021B00010D10D8D22F4700242EA05520D6A22F010
:1021C00080722A434D6A22F000722A43C96A22F0C3
:1021D00000520A435A6480F83C40002030BD02207F
:1021E00030BD0000002C014000340140005001408F
:1021F0007047704770470000F0B590F83C20012A06
:1022000043D0012580F83C50022280F83D2003682D
:102210005A689C681E4E1F4FDFF87CC0B34203D043
:10222000BB4201D0634504D122F4700E4A6842EAF1
:102230000E02DFF868E002EA0E02D1F800E04EEA92
:10224000020EC3F804E00268B24212D0B2F1804F2D
:102250000FD0134B9A420CD0124B9A4209D0124B1A
:102260009A4206D0BA4204D0104B9A4201D062453D
:1022700004D1896824F080031943916080F83D50AF
:10228000002180F83C100846F0BD0220F0BD00009F
:10229000002C014000340140005001408FFFFFFD41
:1022A0000004004000080040000C004000400140D5
:1022B000704710B5040003D094F83D0010B107E05A
:1022C000012010BD002084F83C00204600F022F8D8
:1022D000022084F83D00211D206800F0C7FF012086
:1022E00084F8480084F83E0084F83F0084F84000F9
:1022F00084F8410084F8420084F8430084F84400E4
:1023000084F8450084F8460084F8470084F83D00CE
:10231000002010BD08B51A4A01681A48914208D138
:10232000016E41F400610166006E00F400600090EF
:1023300008BD154A91420ED1016E41F4005101666B
:10234000006E002200F40050009011462E20FFF78E
:102350007FF92E2010E00D4A9142E9D1016E41F43F
:1023600080110166006E002200F48010009011467A
:102370005020FFF76DF95020BDE80840FFF75AB92B
:10238000002C014000100240003401400050014088
:1023900090F83D10012901D001207047022180F8FA
:1023A0003D1000681249884214D0B0F1804F11D01E
:1023B000104988420ED0104988420BD00F498842FC
:1023C00008D00F49884205D00E49884202D00E49F4
:1023D000884207D181680D4A1140062906D0B1F51F
:1023E000803F03D0016841F0010101600020704787
:1023F000002C01400004004000080040000C004098
:10240000003401400040014000500140070001003D
:1024100070B5044690F83C00002501281CD0012628
:1024200084F83C60022084F83D0022689068334BB9
:10243000184020F47F4090600868B0F5005F2ED00F
:1024400016DC402849D009DCD0B1102818D020284B
:1024500016D0302849D113E0022070BD50282AD070
:10246000602830D070280FD0B0F5805F3DD13DE0BE
:1024700010F00F0F39D10111A1F58031072934D89F
:1024800022680146104625E0CB68D1E90121206889
:1024900000F06BFF2068816841F0770109E0CB68AC
:1024A000D1E90121206800F060FF2068816841F4D3
:1024B000804181601AE0CA684968206801F02AF901
:1024C0005021206806E0CA684968206801F033F9A5
:1024D0006021206800F054FF08E0CA68496820685D
:1024E00001F018F940212068F4E7012584F83D60E7
:1024F000002084F83C00284670BD000088FFCEFF15
:1025000070472DE9F04104460068C66805694FF040
:102510000007A90713D5B10711D5F91E01610120E4
:102520002077206880698007204602D0FFF7E8FF07
:1025300004E000F019F9204600F0D6FA2777680782
:1025400016D5700714D521686FF0040008610220C9
:1025500020772068806910F4407F204602D0FFF782
:10256000CFFF04E000F000F9204600F0BDFA277725
:10257000280715D5300713D521686FF008000861CA
:10258000042020772068C0698007204602D0FFF72A
:10259000B7FF04E000F0E8F8204600F0A5FA27773E
:1025A000E80616D5F00614D521686FF01000086112
:1025B000082020772068C06910F4407F204602D0B0
:1025C000FFF79EFF04E000F0CFF8204600F08CFA01
:1025D0002777E80708D0F00706D021686FF00100E0
:1025E0000861204600F00CFB280601D4A80408D599
:1025F000300606D521686FF4025008612046FFF7C7
:10260000A0FDE80508D5300606D521686FF4807076
:1026100008612046FFF794FD680608D5700606D5C8
:1026200021686FF040000861204600F0EAFAA80631
:1026300008D5B00606D521686FF020000861204655
:10264000FFF780FDE80208D5F00206D521686FF497
:10265000801008612046FFF7CCFDA80208D5B00223
:1026600006D521686FF4001008612046FFF7C0FD11
:10267000680208D5700206D521686FF480000861F1
:102680002046FFF7B7FD28020AD5300208D5216899
:102690006FF4000008612046BDE8F041FFF708BE76
:1026A000BDE8F08110B586B0044614216846FDF7F8
:1026B000E9FD0E492068884216D10D48C16C41F0F1
:1026C0000401C164C06C694600F0040005904FF439
:1026D000827000900220019000200290039006205A
:1026E00004900448FEF724FE06B010BD00500140DF
:1026F000001002400008004870B5044690F83C0005
:10270000002501280BD0012084F83C000C2A1ED0A3
:1027100007DC82B1042A12D0082A06D113E0022075
:1027200070BD102A17D0142A19D00125002084F872
:102730003C00284670BD206800F02CFEF6E72068BB
:1027400000F07EFEF2E7206800F0CAFEEEE72068A7
:1027500000F016FFEAE7206800F062FFE6E7206875
:1027600000F09AFFE2E7000010B504460068104947
:1027700088420AD1207F012802D0082805D101E033
:10278000332000E0732001F02BFB0A4920688842C7
:102790000DD1217F0848012907D0022907D1012244
:1027A000BDE810401021FEF7E7BE0022F8E710BD9B
:1027B00000500140003401400008004810B50400FA
:1027C00003D094F83D0010B107E0012010BD0020B7
:1027D00084F83C00204600F022F8022084F83D00F6
:1027E000211D206800F042FD012084F8480084F893
:1027F0003E0084F83F0084F8400084F8410084F8EB
:10280000420084F8430084F8440084F8450084F8CA
:10281000460084F8470084F83D00002010BD704752
:10282000F0B500250446022269B1042916D0082912
:102830005DD00C2966D010296BD094F84300012894
:102840006ED00120F0BD94F83E000128F9D184F843
:102850003E202068C26842F0020209E094F83F007E
:102860000128EED184F83F202068C26842F00402BB
:10287000C2600122206800F06BFD2F4920682F4ABA
:102880002F4B304E88420BD0904209D0984207D04F
:102890002D4FB84204D02D4FB84201D0B04203D1E1
:1028A000476C47F4004747642068884211D0B0F174
:1028B000804F0ED0264988420BD02649884208D046
:1028C0002549884205D0904203D0984201D0B042B9
:1028D00007D18168214A1140062906D0B1F5803F11
:1028E00003D0016841F0010101602846F0BD94F871
:1028F00040000128A5D184F840202068C26842F039
:102900000802B5E794F8410001289AD184F84120E3
:1029100008E094F84200012893D184F8422003E0B3
:1029200084F843200C2901D00125DEE72068C26825
:1029300042F010029CE70000002C014000340140EE
:102940000040014000500140004401400048014067
:102950000004004000080040000C00400700010097
:1029600070B5044690F83C0000260D4601280BD0B7
:10297000012084F83C000C2A4AD007DC82B1042AEA
:1029800020D0082A06D131E0022070BD102A53D091
:10299000142A63D00126002084F83C00304670BD24
:1029A000206800F0F7FC2068816941F0080181612E
:1029B0002068816921F004018161206881692A69A8
:1029C000114311E0206800F03BFD2068816941F46B
:1029D000006181612068816921F4806181612068E2
:1029E00081692A6941EA02218161D4E7206800F007
:1029F00077FD2068C16941F00801C1612068C169A3
:102A000021F00401C1612068C1692A69114311E004
:102A1000206800F0B5FD2068C16941F40061C16122
:102A20002068C16921F48061C1612068C1692A6997
:102A300041EA0221C161AEE7206800F0F1FD2068A3
:102A4000016D41F0080101652068016D21F004016C
:102A500001652068016D2A69114311E0206800F0CA
:102A60001BFE2068016D41F4006101652068016D65
:102A700021F4806101652068016D2A6941EA022123
:102A8000016588E710B5040003D094F83D0010B14B
:102A900007E0012010BD002084F83C00204600F033
:102AA00022F8022084F83D00211D206800F0DEFBA2
:102AB000012084F8480084F83E0084F83F0084F840
:102AC000400084F8410084F8420084F8430084F810
:102AD000440084F8450084F8460084F8470084F8F0
:102AE0003D00002010BD70477047000070B50446DF
:102AF000022269B1042912D0082917D00C291CD050
:102B0000102921D094F84300012824D0012070BD61
:102B100094F83E000128F9D184F83E201DE094F895
:102B20003F000128F2D184F83F2016E094F84000DD
:102B30000128EBD184F840200FE094F841000128EF
:102B4000E4D184F8412008E094F842000128DDD166
:102B500084F8422001E084F843200122206800F03C
:102B6000F7FB1D4920681D4A1D4B1E4D88420BD0A6
:102B7000904209D0984207D01B4EB04204D01B4E61
:102B8000B04201D0A84203D1466C46F400464664E8
:102B90002068884211D0B0F1804F0ED0144988428D
:102BA0000BD01449884208D01349884205D090427E
:102BB00003D0984201D0A84207D181680F4A114042
:102BC000062906D0B1F5803F03D0016841F001012C
:102BD0000160002070BD0000002C01400034014065
:102BE00000400140005001400044014000480140C5
:102BF0000004004000080040000C004007000100F5
:102C00007047704710B5040003D0D4F8880010B1A5
:102C100007E0012010BD002084F88400204600F069
:102C200026F82420C4F888002068016821F00101FA
:102C30000160A06A10B1204600F08FFD204600F030
:102C400071FE0128E6D02068416821F4904141607E
:102C50002068816821F02A0181602068016841F0C4
:102C6000010101602046BDE8104000F0DABD704768
:102C70002DE9F8430446D0F88800984616460D46DC
:102C8000202802D00220BDE8F883A5B19EB1002023
:102C9000C4F890002120C4F888001834FEF772FCB4
:102CA000A6878146E68754F8100C2027183CB0F51B
:102CB000805F02D003E00120E5E7206910B12E46D5
:102CC000002510E000260EE08021204600F076FF6F
:102CD000C0B9DEB116F8010B21688862B4F856005D
:102CE000401EA4F85600B4F856004B464FF00002C0
:102CF000CDF800800028E7D14FF04001204600F0D9
:102D00005DFF40B1C4F888700320BCE735F8020BC2
:102D1000C0F30800E0E7C4F888700020B3E7FEE7DE
:102D200000EB8100006E00F0F84070478068C0F34F
:102D3000C00070478068C0F3800070478068C0F3AF
:102D400080007047C06810F4406F01D000207047C9
:102D500001207047042303EAD15310B51844436996
:102D6000C1F3045107248C40A3438A4013434361B9
:102D700010BD00EB8100016E21F00041114301669E
:102D80007047000030B58BB00024089409942021CE
:102D900068460A94FDF776FA1E484FF0A0410425D4
:102DA00001604FF40031C0E90114C4600461C0E95E
:102DB0000545047744770121016280F824404FF4EF
:102DC000A462C2628A02026380F83810C46380F889
:102DD0004040FDF781FF08B1FDF76FFC08A90D48E1
:102DE0000894FDF76DFC08B1FDF767FC0A480090F8
:102DF0000620CDE901047F200594CDE9030569464D
:102E00000448FDF70DFD002801D0FDF756FC0BB07E
:102E100030BD0000E43A0020020030040D4808B53F
:102E2000816C41F004018164816C01F00401009126
:102E3000816C41F001018164806C002200F001008E
:102E4000009011460B20FEF703FCBDE808400B2064
:102E5000FEF7F0BB001002402DE9F04786B01421C8
:102E60006846FDF70FFA2B48C16C41F00401C164BC
:102E7000C16C01F004010591C16C41F02001C164F5
:102E8000C16C01F020010591C16C41F00101C164E8
:102E9000C16C01F001010591C16C41F00201C164F6
:102EA000C06C4FF4F86400F002004FF090480590B9
:102EB000002221464046FEF75FFBDFF85C900022CF
:102EC00090214846FEF758FBDFF850A04FF4886782
:102ED000002239465046FEF74FFB009401AA012418
:102EE0000025032682E8700069464046FEF720FA76
:102EF00090208DE8710069464846FEF719FA01AA4C
:102F0000009782E8700069465046FEF711FA06B055
:102F1000BDE8F087001002400008004800040048A7
:102F2000094A126802600A6842600C2242614A89BA
:102F300002614A6882600A89C260898981614FF4AE
:102F40000041C161FFF75EBE1800002030B587B0B8
:102F50000024184805940694039404940094019462
:102F600013490294C0E900142025C0E902458021DC
:102F70000461C0E90541FFF79CF908B1FDF79DFB2D
:102F80004FF48050039003A90A48FFF741FA08B1B3
:102F9000FDF793FBCDE90054694606480294FFF71C
:102FA0002BF9002801D0FDF788FB07B030BD0000E9
:102FB000002C0140B03B002010B59CB000241994B7
:102FC0001A9417941894149415941C216846169416
:102FD000FDF758F9342107A8FDF754F93F483E4959
:102FE000C0E9001446F2A711C0E902418021046142
:102FF000C0E90541FFF75DF908B1FDF75EFB4FF44D
:103000008050179017A93548FFF702FA08B1FDF76D
:1030100054FB3248FFF7D2FB08B1FDF74EFB2F48B7
:10302000FFF730FD08B1FDF748FB1494159414A97F
:103030002A481694FFF7E0F808B1FDF73EFB42F688
:103040000310CDE9004002940394049405940022F7
:10305000694622480694FFF74FFB08B1FDF72DFBA8
:103060006020009003200190042269461B48FFF76E
:1030700077FC08B1FDF721FB082269461748FFF7E6
:103080006FFC08B1FDF719FB45F6D710CDE90040FC
:103090000C2269461148FFF72FFB08B1FDF70DFB25
:1030A0000794089409944FF400500A94CDE90B401A
:1030B0000D9400030E94CDE90F401194129407A9CA
:1030C00006481394FFF740F808B1FDF7F6FA0348F5
:1030D000FFF7E8FA1CB010BD00500140483C00204A
:1030E00010B59CB0002419941A9417941894149451
:1030F00015941C210DA81694FDF7C4F834216846D8
:10310000FDF7C0F831483049C0E9001446F2A71174
:10311000C0E9024180210461C0E90541FFF7C9F817
:1031200008B1FDF7CAFA4FF48050179017A9274845
:10313000FFF76EF908B1FDF7C0FA2448FFF73EFB30
:1031400008B1FDF7BAFA1494159414A91F481694FF
:10315000FFF752F808B1FDF7B0FA40F21770CDE969
:103160000D400F9410941194129400220DA9174849
:103170001394FFF7C1FA08B1FDF79FFA41F2B76067
:103180000E9004220DA91148FFF7B6FA08B1FDF719
:1031900094FA00944FF40050CDE9044003940003E6
:1031A000CDE9084001940294069407940A940B9484
:1031B000694606480C94FEF7C7FF002801D0FDF7CA
:1031C0007CFA1CB010BD000000340140FC3B002024
:1031D000FEE7FEE770477047FEF7DAB910B594B026
:1031E00038216846FDF74EF814210EA8FDF74AF87D
:1031F0004FF40070FEF75EFA0120009000040324F3
:1032000006210190CDE9084102203221CDE90A10C2
:1032100007900C900D906846FEF77CFD08B172B6E1
:10322000FEE70F20CDE90E040020109011901290BF
:1032300003210EA8FEF724FC002801D072B6FEE799
:1032400014B010BD0248016841F47001016070477C
:1032500088ED00E00148FFF754B90000483C002029
:103260000148FFF74EB90000FC3B00202DE9F04F6C
:1032700002682E4B2E4E2F4FDFF8BCC02F4C304D26
:103280004FF0804B98420BD0584509D0B04207D040
:10329000B84205D0604503D0A04201D0A84204D175
:1032A00022F070084A6842EA0802DFF89880DFF8E6
:1032B0009890DFF898A0984211D058450FD0B042AE
:1032C0000DD0B8420BD0604509D0A04207D0404590
:1032D00005D0484503D0504501D0A84203D122F47F
:1032E0004076CA6832434E6922F08002324302605F
:1032F0008A68C2620A688262984209D0A04207D0F6
:10330000404505D0484503D0504501D0A84201D1E1
:1033100009690163012141610169C90703D001699C
:1033200021F001010161BDE8F08F0000002C014097
:103330000004004000080040000C00400034014040
:10334000005001400040014000440140004801405D
:1033500010B501F01F030121046A99408C430462F7
:10336000016A9A401143016210BD10B5846842EAB7
:10337000032224F47F440A432243826010BD0000EC
:103380008268034B1A400A4342F00701816070478C
:103390008FFFCFFF2DE9F047056A026A22F0010294
:1033A0000262436882691F4C25F0020522400C68C6
:1033B00022F0030214438A681C4E2A431A4D1C4F04
:1033C000DFF870C0DFF87090DFF870A0A84209D075
:1033D000B04207D0B84205D0604503D0484501D07F
:1033E000504506D122F00808CA6842EA080222F0D5
:1033F0000402A84209D0B04207D0B84205D06045C7
:1034000003D0484501D0504505D14D6923F44073A0
:103410001D438B692B4343608461496841630262A9
:10342000BDE8F0878FFFFEFF002C01400034014013
:10343000004001400044014000480140005001406C
:10344000F0B5056A026A22F01002026242688369DE
:103450001C4C1E4E23400C6823F4407343EA0424A2
:1034600025F020038D681A4F43EA0513164DA84234
:1034700003D0B04201D0B84207D1D1F80CC023F03C
:10348000800343EA0C1323F04003A8420CD0B0425F
:103490000AD0104DA84207D00F4DA84204D00F4DBE
:1034A000A84201D0B84207D14D6922F4406242EAF5
:1034B00085028D6942EA85024260846149688163C0
:1034C0000362F0BDFF8FFFFE002C0140003401407D
:1034D00000500140004001400044014000480140CC
:1034E000F0B5056A026A22F4807202624368C2691A
:1034F0001C4C1E4E22400C6822F00302144325F49B
:1035000000728D681A4F42EA0522174DA84203D077
:10351000B04201D0B84207D1D1F80CC022F4006209
:1035200042EA0C2222F48062A8420CD0B0420AD0B7
:10353000104DA84207D0104DA84204D00F4DA8420C
:1035400001D0B84207D14D6923F4405343EA051333
:103550008D6943EA05134360C4614968C16302622F
:10356000F0BD00008FFFFEFF002C01400034014041
:10357000005001400040014000440140004801402B
:10358000F0B5056A026A22F4805202624268C36999
:103590001C4C1E4E23400C6823F4407343EA042461
:1035A00025F400538D681A4F43EA0533164DA8429F
:1035B00003D0B04201D0B84207D1D1F80CC023F4F7
:1035C000004343EA0C3323F48043A8420CD0B042BA
:1035D0000AD0104DA84207D00F4DA84204D00F4D7D
:1035E000A84201D0B84207D14D6922F4404242EAD4
:1035F00085128D6942EA85124260C461496801649E
:103600000362F0BDFF8FFFFE002C0140003401403B
:10361000005001400040014000440140004801408A
:1036200030B5056A026A22F4803202624268036D94
:10363000124C23400C681C4325F400330D8943EAE7
:1036400005430F4DA8420ED00E4DA8420BD00E4D93
:10365000A84208D00D4DA84205D00D4DA84202D079
:103660000C4DA84204D14D6922F4803242EA052271
:103670004260046549688164036230BD8FFFFEFFCC
:10368000002C014000340140004001400044014052
:10369000004801400050014030B5046A026A22F43B
:1036A000801202624268036D134D24F400142B4013
:1036B0000D6843EA05230D8944EA05540F4DA842DD
:1036C0000ED00F4DA8420BD00E4DA84208D00E4D83
:1036D000A84205D00D4DA84202D00D4DA84204D1FC
:1036E0004D6922F4802242EA8522426003654968DE
:1036F000C164046230BD0000FF8FFFFE002C01405A
:1037000000340140004001400044014000480140B5
:103710000050014010B5036A046A24F001040462F9
:10372000846924F0F00444EA021423F00A020A43F4
:103730008461026210BD10B5036A046A24F01004AB
:103740000462846923F0A00324F4704444EA023242
:1037500043EA01118261016210BD90F82810090747
:1037600006D501684A68836B22F400421A434A6016
:1037700090F82810C90706D001684A68C36A22F485
:1037800000321A434A6090F82810890706D501686C
:103790004A68036B22F480321A434A6090F828107A
:1037A000490706D501684A68436B22F480221A4310
:1037B0004A6090F82810C90606D501688A68C36B6C
:1037C00022F480521A438A6090F82810890606D5A0
:1037D00001688A68036C22F400521A438A6090F8E8
:1037E0002810490611D501684A68436C22F48012FA
:1037F0001A434A60416CB1F5801F06D101684A68DE
:10380000836C22F4C0021A434A6090F8281009061B
:1038100006D501684A68C06C22F4002202434A605F
:1038200070472DE9F84300260446C0F89060FDF784
:10383000A9FE8046206800684FF0200500076FF061
:103840007E4713D54346002229042046009700F006
:10385000B5F958B1216851E8000F20F0800041E827
:103860000002002AF6D1C4F8885021E020680068E0
:10387000400722D5434600224FF48001204600979E
:1038800000F09CF9C8B1216851E8000F20F4907055
:1038900041E80002002AF6D12068083050E8001FF5
:1038A00021F0010140E80012002AF5D1C4F88C5043
:1038B00084F884600320BDE8F883C4F88850C4F815
:1038C0008C5044F86C6F666026760020F3E70000A9
:1038D00010B5026852E8001F21F4907142E800130D
:1038E000002BF6D10E4B0268083252E8001F194037
:1038F00042E80014002CF6D1C16E012908D10168FC
:1039000051E8002F22F0100241E80023002BF6D1ED
:103910002021C0F88C100021C166416710BD000055
:10392000FEFFFFEF2DE9F04104460168806822693F
:10393000E3691043626900251A431043DFF84CC263
:103940000A68934B1A4002430A6020684168E268A3
:1039500021F44051114341602168A069614501D0C3
:10396000226A10438A688B4B1A4002438A6020689F
:10397000C16A626A21F00F011143C162864923685E
:1039800086488B420DD1D0F8880010F0030006D095
:10399000012867D0022854D0032851D164E00120C7
:1039A0004FE07F498B420BD1D0F8880010F00C001B
:1039B00047D0042845D0082852D00C2840D153E0E5
:1039C00078498B420BD1D0F8880010F0300038D005
:1039D000102847D0202843D0302831D144E0724904
:1039E0008B420BD1D0F8880010F0C00029D04028BD
:1039F00038D0802834D0C02822D135E06B498B42A2
:103A00000ED1D0F8880010F440701AD0B0F5807F45
:103A100028D0B0F5007F23D0B0F5407F10D123E04F
:103A200063450DD1D0F8880010F4406009D0B0F59E
:103A3000806F17D0B0F5006F12D0B0F5406F13D083
:103A400010205B4A5B4F00264FF40041634539D19B
:103A500060B102280DD004280DD0082831D10EE025
:103A60000220EEE70420ECE70820EAE7FEF7F6F88C
:103A700003E0114603E0FEF715F901007BD0606A10
:103A800037F810206768B1FBF2F007EB4703834279
:103A900069D8B0EB073F66D8002308461946FCF703
:103AA000B9FB090241EA106102027808101871415D
:103AB0003A460023FCF7AEFB3F4AA0F54071914225
:103AC00057D950E0E3694FF6EF788B422BD10928A4
:103AD00049D2DFE800F005080D48254848480E00A7
:103AE000FEF7BCF801E0FEF7CBF8010001D142E09F
:103AF0001146606A37F81000B1FBF0F041006068D1
:103B000001EB5001B1FBF0F1A1F1100040452AD8C2
:103B10004FF6F07201EA0200C1F34201084328E0C7
:103B2000FEF7C0F8E1E709281DD2DFE800F005083C
:103B30000D1C1E1C1C1C0E00FEF790F801E0FEF789
:103B40009FF8010001D116E01146606A37F81000B5
:103B5000B1FBF0F1606801EB5001B1FBF0F0A0F1B6
:103B60001001414504D9012505E0FEF79BF8E8E77F
:103B700080B22168C8600120A4F86A0024F8680FA8
:103B80002846E6602661BDE8F08100000080004024
:103B9000F369FFCFFFF4FF1100380140001002402D
:103BA0000044004000480040004C004000500040ED
:103BB0000024F400503E0008FFFC0F002DE9F04700
:103BC000994617460D4604464FF00008089E33E01C
:103BD000701C31D0FDF7D6FCA0EB0900B04218D81C
:103BE000BEB120680168490726D5802D24D0402D1C
:103BF00022D0C169C94309070DD4082505622046B2
:103C0000FFF766FEC4F8905084F884800120BDE878
:103C1000F0870320FBE7C069C04300050CD421688E
:103C20004FF4006008622046FFF752FE2020C4F8DF
:103C3000900084F88480ECE72068C06935EA0000D1
:103C400004D00020B842C3D00020E0E70120F9E70B
:103C5000FEE70907090E002804DB00F1E02080F8E8
:103C60000014704700F00F0000F1E02080F8141DF0
:103C7000704702E008C8121F08C1002AFAD1704735
:103C80007047002001E001C1121F002AFBD17047DC
:103C900008B5FDF785FCFFF7A1FAFFF7DDF8FFF7A0
:103CA000BDF8FFF76FF8FFF751F9FFF719FAFFF7C3
:103CB00083F940F2DC5632463F494048FDF77AF935
:103CC0003F48FEF765FB00213E48FEF7A9FD0C21A9
:103CD0003C48FEF7A5FD00213B48FEF7A1FD04216D
:103CE0003948FEF79DFD04213648FEF7FFFE082106
:103CF0003448FEF7FBFE0020FCF7C6FB0121002044
:103D0000FCF7F8FB31484FF47A310025C0E9001583
:103D100005814581858101462846FCF797FBDFF840
:103D2000B0A02C490AEBC60808B172B6FEE7894676
:103D30004C4699F8010028B36570A26800205146EE
:103D400051F8203032F810703B4441F82030401CCC
:103D5000B042F5DBA088401CA080A088022811D3C7
:103D60000020424651F820305B0822F81030401CF9
:103D7000B042F7DB41F270711548FCF783FAA58079
:103D80000120E070E0780028D2D0E570002447469A
:103D900037F8140010A1642309680091010A8DF816
:103DA00001108DF80200032269460C48FEF760FFFF
:103DB000641CB442ECDBBBE7AC170020E43A002003
:103DC000B03B0020483C0020FC3B0020D43A0020BF
:103DD0003C00002000000020AA000000943C0020CD
:103DE00070B5094E0546002425FA04F000F00102E2
:103DF00006EBC400818856F83400FDF7BDFB641C57
:103E0000072CF1DB70BD00000C3E000800000048EC
:103E1000400000000000004880000000000400484E
:103E2000400000000008004880000000000000483A
:103E300000020000000000480001000000000048EF
:103E40000004000028002000002000000D000006F3
:103E5000010002000400060008000A000C00100027
:103E60002000400080000001000000000000000071
:103E70000102030406070809000000000102030410
:103E8000A03E0008000000203C000000723C00083A
:103E9000DC3E00083C000020EC400000823C0008B2
:103EA0000000000000000000000000000000000012
:103EB0000000004800080048008000408D05000810
:103EC0000F000000000000000000000010000000D3
:0C3ED00001000000000000000024F400CD
:04000005080001D915
:00000001FF
